:020000040800F2
:100000003804002045010008850700089105000814
:10001000E105000805020008630F00080000000069
:1000200000000000000000000000000011090008AE
:10003000E103000800000000F9070008250A000895
:100040005F0100085F0100085F0100085F01000810
:100050005F0100085F0100085F0100085F01000800
:100060005F0100085F0100085F0100085F010008F0
:100070005F0100085F0100085F0100085F010008E0
:100080005F0100085F0100085F0100085F010008D0
:100090005F0100085F0100085F0100085F010008C0
:1000A0005F010008890A00085F0100085F0100087D
:1000B0005F0100085F0100085F0100085F010008A0
:1000C0005F0100085F0100085F0100085F01000890
:1000D0005F0100085F010008190D00085F010008BA
:1000E0005F0100085F0100085F0100085F01000870
:1000F0005F0100085F0100085F0100085F01000860
:100100005F0100085F0100085F0100085F0100084F
:100110005F0100085F0100085F0100085F0100083F
:100120005F0100085F0100085F0100085F0100082F
:10013000DFF80CD000F018F800480047C90F00089D
:10014000380400200648804706480047FEE7FEE7DF
:10015000FEE7FEE7FEE7FEE7FEE7FEE7FEE7FEE777
:10016000290A000831010008064C074D06E0E06846
:1001700040F0010394E8070098471034AC42F6D3EE
:10018000FFF7DAFFEC0F00080C10000836E01C48FF
:10019000007818B94FF4E15000F09CF81848007846
:1001A000012803D14FF4E15000F02EF814480078F4
:1001B000022803D14FF4E15000F06AF810480078AB
:1001C000032803D14FF4E15000F040F80C480078C8
:1001D000042804D100214FF4E15000F0BFF8084892
:1001E0000078052804D14FF4E151084600F094F856
:1001F00003480078062801D100F0D2F8C7E70000D4
:100200002900002000BFFEE710B504464FF400713E
:100210000C4800F0B9F94FF480710A4800F0B6F9C3
:100220001021084800F0B0F92021064800F0AEF98E
:10023000A1B2054800F01BFDA1B2034800F015FD76
:1002400010BD0000000C01400008004010B504463D
:100250004FF400710C4800F099F94FF480710A488E
:1002600000F092F91021084800F08EF9202106488C
:1002700000F08AF9A1B2054800F0F9FC002103481A
:1002800000F0F3FC10BD0000000C0140000800402D
:1002900010B504464FF400710C4800F075F94FF4A6
:1002A00080710A4800F070F91021084800F06EF9DA
:1002B0002021064800F068F90021054800F0D7FC2D
:1002C000A1B2034800F0D1FC10BD0000000C0140B9
:1002D0000008004010B504464FF400710C4800F0CF
:1002E00055F94FF480710A4800F04EF91021084882
:1002F00000F04CF92021064800F046F9A1B205486B
:1003000000F0B5FCA1B2034800F0AFFC10BD000046
:10031000000C01400008004070B504460D464FF443
:1003200000710C4800F032F94FF48071094800F078
:100330002BF91021074800F027F92021054800F08B
:1003400025F9A1B2044800F092FCA9B2024800F0DD
:100350008CFC70BD000C01400008004070B50446E4
:100360000D464FF400710C4800F00EF94FF4807107
:10037000094800F00BF91021074800F007F9202187
:10038000054800F001F9A1B2044800F070FCA9B2E0
:10039000024800F06AFC70BD000C014000080040FB
:1003A00010B54FF400710C4800F0EEF84FF4807176
:1003B000094800F0E9F81021074800F0E5F820218D
:1003C000054800F0E1F80021044800F050FC00214D
:1003D000024800F04AFC10BD000C0140000800403B
:1003E00070472DE9F0410246002500260020002339
:1003F0000024002791F803C00CF00F0591F803C00A
:100400000CF0100CBCF1000F03D091F802C04CEAC4
:10041000050591F800C0BCF1000F31D01468002030
:100420002BE04FF0010C0CFA00F3B1F800C00CEA1D
:1004300003069E4220D183004FF00F0C0CFA03F705
:10044000BC4305FA03FC4CEA040491F803C0BCF178
:10045000280F06D14FF0010C0CFA00FCC2F814C0B2
:100460000AE091F803C0BCF1480F05D14FF0010C30
:100470000CFA00FCC2F810C0401C0828D1D314604C
:10048000B1F800C0BCF1FF0F34DD546800202EE04D
:1004900000F1080C4FF0010808FA0CF3B1F800C0A5
:1004A0000CEA03069E4221D183004FF00F0C0CFA98
:1004B00003F7BC4305FA03FC4CEA040491F803C0BB
:1004C000BCF1280F05D100F1080C08FA0CF8C2F8AD
:1004D000148091F803C0BCF1480F07D100F1080C5B
:1004E0004FF0010808FA0CF8C2F81080401C0828E8
:1004F000CED35460BDE8F081F0B50A460023002455
:100500000021002500F00046B6F1004F02D11D4E3B
:10051000F16901E01B4E7168C0F3034583B200F43A
:100520004016B6F5401F08D121F07061154E76686F
:1005300026F07066134F7E6012E000F48016B6F568
:10054000801F06D1032606FA05F4A14341F070612D
:1005500006E0460D360103FA06F6B14341F070613C
:1005600022B1460D360103FA06F6314300F000468B
:10057000B6F1004F02D1034EF16101E0014E71600E
:10058000F0BD00000000014041617047016170470B
:1005900000BFFEE708B50121082000F03FF94FF445
:1005A0004C70ADF8000010208DF8030003208DF88A
:1005B000020069460848FFF714FF4FF44C710648E3
:1005C000FFF7E2FF0121092000F028F9012103488B
:1005D000FFF792FF08BD0000000C01400002300050
:1005E00000BFFEE7F0B589B007460C4615461E462B
:1005F0000121042000F002F98020ADF8200018202D
:100600008DF8230003208DF8220008A93048FFF759
:10061000E8FEADF81870ADF814400020ADF81A00EF
:10062000ADF8160005A92B4800F024FB6020ADF8BA
:1006300004000120ADF806000020ADF80C00ADF874
:100640000A0001A9234800F0B1FA0821214800F06E
:10065000FFFA01211F4800F036FA0121042000F0C2
:10066000CDF80121092000F0D9F84020ADF8200094
:1006700018208DF8230003208DF8220008A91448C3
:10068000FFF7AFFEADF81850ADF814600020ADF8DC
:100690001A00ADF8160005A90E4800F0EBFA60202C
:1006A000ADF804000120ADF806000020ADF80C0004
:1006B000ADF80A0001A9074800F022FA0821054810
:1006C00000F06AFA0121034800F0FDF909B0F0BD1D
:1006D000000C01400008004000B587B00121042053
:1006E00000F09CF80121480400F088F818208DF8EB
:1006F0001B000420ADF8180001208DF81A0006A98F
:100700001E48FFF76EFE04208DF81B000820ADF890
:10071000180001208DF81A0006A91848FFF761FE9D
:100720004FF4165002900020ADF814000C20ADF8E4
:1007300012000020ADF81000ADF80E00ADF80C006E
:1007400002A90F4800F09CFB01210D4800F03DFB81
:10075000012240F225510A4800F06DFB26208DF859
:10076000040001208DF807008DF805008DF80600C3
:1007700001A800F009F807B000BD00000008014022
:10078000004400407047000070B5002100230F2294
:10079000C47804B3154C246804F4E064C4F5E06440
:1007A000210AC1F10403CA40447804FA03F18478B1
:1007B0001440214309010E4C0678A155047804F039
:1007C0001F050124AC4005786D11AD0005F1E02551
:1007D000C5F8004109E0047804F01F050124AC408D
:1007E000044D0678761145F8264070BD0CED00E00A
:1007F00000E400E080E100E07047000029B1064A13
:10080000D2690243044BDA6104E0034AD2698243AD
:10081000014BDA61704700000010024029B1064A1E
:1008200092690243044B9A6104E0034A926982434D
:10083000014B9A61704700000010024030B5002162
:100840000022002400232D4D6D6805F00C0121B11C
:10085000042905D0082923D105E0294D056022E0AF
:10086000274D05601FE0254D6D6805F47012234D7E
:100870006D6805F48034022505EB92421CB9214DC8
:10088000554305600BE01D4D6D6805F400351DB145
:100890001C4D5543056002E0194D5543056002E0CB
:1008A000174D056000BF00BF144D6D6805F0F001E5
:1008B0000909154D6B5C0568DD4045600F4D6D689D
:1008C00005F4E061090A104D6B5C4568DD40856008
:1008D0000A4D6D6805F46051C90A0B4D6B5C4568A3
:1008E000DD40C560054D6D6805F44041890B074D3D
:1008F0006B5CC568B5FBF3F5056130BD00100240C7
:1009000000127A0000093D0014000020240000209D
:10091000704710B500F002F810BD00000CB50020C3
:10092000019000903348006840F4803031490860FD
:1009300000BF3048006800F4003000900198401C6F
:100940000190009818B90198B0F5A06FF1D129482D
:10095000006800F4003010B10120009001E0002098
:1009600000900098012843D12348006840F010000F
:10097000214908600846006820F003000860084626
:10098000006840F0020008601A4840681949486051
:100990000846406848600846406840F48060486007
:1009A0000846406820F47C1048600846406840F4DF
:1009B000E81048600846006840F08070086000BF9A
:1009C0000C48006800F000700028F9D00948406821
:1009D00020F00300074948600846406840F00200E4
:1009E000486000BF0348406800F00C000828F9D1B7
:1009F0000CBD00000010024000200240042808D175
:100A00004FF0E021096941F004014FF0E02211614B
:100A100007E04FF0E021096921F004014FF0E022E6
:100A2000116170477047000010B51348006840F02E
:100A300001001149086008464068104908400E4905
:100A40004860084600680E4908400B49086008469F
:100A5000006820F4802008600846406820F4FE000A
:100A600048604FF41F008860FFF753FF4FF00060AD
:100A70000449086010BD0000001002400000FFF8AB
:100A8000FFFFF6FE08ED00E010B501210A4800F076
:100A900026F878B10121084800F012F807480068EC
:100AA000401C0649086008460068B0F5FA6F01D19D
:100AB0000020086010BD0000002C01403000002024
:100AC000CA430282704721B1028842F001020280CB
:100AD00004E002884FF6FE731A400280704730B57A
:100AE0000246002000230024158A05EA01039589A7
:100AF00005EA010413B10CB1012000E0002030BD73
:100B000070B5002400220023058C4FF6FE76354098
:100B10000584028C8388048B4FF68F752C40B51E9C
:100B20002C400D882C43751E2A400D892A434D8880
:100B30002A43144DA8420BD0134DA84208D0134DA0
:100B4000A84205D0124DA84202D0124DA84213D19E
:100B50004FF6F7752A404D892A434FF6FB752A4018
:100B60008D882A434FF6FF652B404FF6FF552B40EB
:100B70008D892B43CD892B4383800483CD88858643
:100B8000028470BD002C014000340140004001404F
:100B900000440140004801400A460021018B4FF605
:100BA000F7731940114301837047000070B50024AA
:100BB00000220023058C4FF6EF7635400584028C29
:100BC0008388048B48F6FF752C404FF6FF452C4078
:100BD0000D884FF6FF7606EA05252C434FF6DF75A4
:100BE0002A400D8906EA05152A434D8806EA0515AF
:100BF0002A43154DA84202D0144DA8421DD14FF6EC
:100C00007F752A404D894FF6FF7606EA05152A437F
:100C10004FF6BF752A408D8806EA05152A434FF620
:100C2000FF352B404FF2FF752B408D8906EA850575
:100C30002B43CD8906EA85052B4383800483CD8829
:100C40000587028470BD0000002C01400034014083
:100C50000A460021018B4FF2FF7319404FF6FF73D4
:100C600003EA022319430183704781867047018795
:100C700070470000002202881D4B98420ED01D4B89
:100C800098420BD0B0F1804F08D01B4B984205D052
:100C90001A4B984202D01A4B984204D14FF68F73E8
:100CA0001A404B881A43174B984207D0164B98426C
:100CB00004D04FF6FF431A40CB881A4302808B883A
:100CC00083850B8803850A4B98420BD0094B9842C9
:100CD00008D00E4B984205D00D4B984202D00D4BD8
:100CE000984201D10B7A038601238382704700006A
:100CF000002C014000340140000400400008004086
:100D0000000C004000100040001400400040014072
:100D1000004401400048014010B540F225512048F0
:100D200000F05FF801283AD140F225511C4800F04C
:100D30003DF81B4800F010F91A4908700846007881
:100D4000302802D100201849087016480078312850
:100D500002D101201449087012480078322802D1CB
:100D60000220114908700F480078332802D103206F
:100D70000D4908700B480078342802D104200A4934
:100D8000087008480078352802D105200649087007
:100D900004480078362802D106200349087010BDA7
:100DA00000440040280000202900002010B5002247
:100DB000002340F66A14A14200D100BF0A120124A8
:100DC0009440A3B2DC43048010BD21B1828942F477
:100DD0000052828104E082894DF6FF731A408281BD
:100DE000704770B50246002400230025002040F61D
:100DF0006A16B14200D100BFC1F3421501F01F03D2
:100E0000012606FA03F3012D02D19689334006E04C
:100E1000022D02D1168A334001E0968A33400C122B
:100E2000012606FA04F41688344013B10CB10120EF
:100E300000E0002070BDF0B5034600240026002528
:100E4000002040F66A17B94200D100BF1846C1F32E
:100E5000421401F01F06012707FA06F5012C01D103
:100E60000C3004E0022C01D1103000E014301AB133
:100E700007682F43076002E00768AF430760F0BDD3
:100E80002DE9F04786B005460E460024A24600BF75
:100E9000A1460027B08900B100BF2F462C8A4CF62E
:100EA000FF700440F08804432C82AC894EF6F310A6
:100EB0000440B08831890843718908430443AC81F8
:100EC000AC8A4FF6FF400440B0890443AC8201A8CD
:100ED000FFF7B4FC1F48874202D1DDF810A001E003
:100EE000DDF80CA0A88900F4004040B10AEBCA006C
:100EF00000EB0A1031684900B0FBF1F807E00AEB9B
:100F0000CA0000EB0A1031688900B0FBF1F86420D8
:100F1000B8FBF0F004012009642101FB1089A889C5
:100F200000F4004040B1322000EBC900B0FBF1F00A
:100F300000F00700044308E0322000EB09106421B0
:100F4000B0FBF1F000F00F0004432C8106B0BDE8C7
:100F5000F08700000038014001468888C0F308008F
:100F6000704700BFFEE702E008C8121F08C1002A50
:100F7000FAD170477047002001E001C1121F002A1A
:100F8000FBD1704710B56FF00400FFF737FD0A483A
:100F900000680A49B0FBF1F009490870084600787A
:100FA00000EB4001C1EBC0104FF6FF7101EAC00039
:100FB0000449088010BD00000000002000127A00E3
:100FC0002A0000202C00002010B5FFF7DBFFFFF700
:100FD000E1FAFFF781FB00234FF4E1521946104676
:100FE000FFF700FBFFF7D2F8002010BD0C1000083F
:100FF0000000002034000000660F000840100008C8
:101000003400002004040000760F000800A24A0407
:1010100000000000000000000102030406070809A8
:10102000000000000102030401020304060708098E
:101030000204060800060000000000000000000096
:0400000508000131BD
:00000001FF
